:100000000C94D8000C94F5000C94C90E0C94F500D7
:100010000C94F5000C94BA0E0C94F5000C94F500B9
:100020000C94F5000C94F5000C94F5000C94F5007C
:100030000C94F5000C94F5000C947C0E0C94F500D7
:100040000C94F5000C94F5000C94F5000C94F5005C
:100050000C94F5000C94F5000C94F5000C94F5004C
:100060000C94F5000C94F5000C94F5000C94F5003C
:100070003230323130373131303131340001050422
:100080001410111500000000000000000000000026
:100090000000000000000000000000000000000060
:1000A0000000000000000000000000000000000050
:1000B0000000000000000000000000000000000040
:1000C0000000000000000102030405060708090AF9
:1000D0000B0C0D0D0F10111213151617191A1B1CEE
:1000E0001E202122242627292A2C2E2F3133353772
:1000F000393B3D3F41434547494B4E505254575A77
:100100005C5E616366686C6E717477797D7F8286F0
:10011000888C8F9295999C9FA3A6010102020303EC
:10012000040405060708090A0C0D0E0F1113141616
:10013000181A1D1F2224272A2D3033373B3E4246F2
:100140004B4F54595D63686E73797F868C939AA187
:10015000A8B0B8C0C8D1D9E2ECF5FFFFFFFFFFFFA0
:10016000FFFFFFFFFFFFFFFFFFFFFFFFFFFFFFFF9F
:10017000FFFFFFFFFFFFFFFFFFFFFFFFFFFFFFFF8F
:10018000FFFFFFFFFFFFFFFFFFFFFFFFFFFFFFFF7F
:10019000FFFFFFFFFFFFFFFFFFFFFFFFFFFFFFFF6F
:1001A000FFFFFFFFFFFFFFFFFFFFFFFFFFFFFFFF5F
:1001B00011241FBECFEFD4E0DEBFCDBF11E0A0E021
:1001C000B1E0E8E7F3E202C005900D92AC34B1076C
:1001D000D9F721E0ACE4B1E001C01D92A13FB20724
:1001E000E1F70E94D80E0C94BA110C940000F89418
:1001F00098ED9FBD83BF78940895482F9B01EEEB47
:10020000F1E080E090E05081552331F00196339683
:1002100080319105C1F70AC063E070E00E945B1174
:10022000FC01E254FE4F40833283218308950F93F3
:100230001F93CF93DF93D091BE01DD2351F1009145
:10024000BF011091C001C0919B01C150C7FD0DC0FD
:10025000EC2FEE0FFF0BE456FE4F0190F081E02DE6
:10026000B8018D2F09958111F0CFEEEBF1E083817C
:1002700080838481958192838183339681E0EB3EF4
:10028000F807A9F71092EB011092ED011092EC0122
:10029000D2CFDF91CF911F910F910895BC01809132
:1002A000F0010C94FD001092F0011092EF011092F9
:1002B000EE0181E08093780108950F931F93CF930F
:1002C000C82F08EA17E0CC2359F082E00E94F7001B
:1002D000C8010197F1F780E00E94F700C150F3CF09
:1002E000CF911F910F9108958FB182FB882780F9DC
:1002F00091E08927809394010895E0910601F0919F
:1003000007013196FB70F460F0930701E09306015A
:10031000809190018B5A80939001E491809190019B
:100320008E0F089580919201863010F482E005C00E
:100330008E3010F481E001C080E00C94F7000F9340
:100340001F93CF93DF9300D01F92CDB7DEB72091DC
:100350001F01309120014091210129833A834B8371
:10036000FE01319640E050E090E061E070E0B19134
:100370009A01220F331F8C0102C0159507952A950B
:10038000E2F79801237061F02130D1F4A0B39B0112
:1003900001C0220FBA95EAF7322F30953A2318C0E0
:1003A000A0B39B0101C0220FBA95EAF720953A2F1E
:1003B000322330BB32B3322332BB31B323230EC0DE
:1003C000A0B39B0101C0220FBA95EAF73A2F322B56
:1003D00030BB32B3322B32BB31B3232B21BB4F5F47
:1003E0005F4F4330510519F60F900F900F90DF913A
:1003F000CF911F910F910895CF93DF9300D000D03C
:1004000000D0CDB7DEB7909174012091AC0130914E
:10041000AD012957394009F492E06623F9F08230A2
:1004200019F427E9261B622F26E0E2E2F1E0DE0163
:10043000119601900D922A95E1F7E82FF0E031979F
:10044000EE0FFF1F21E030E02C0F3D1FE20FF31FE6
:100450000190F081E02DE90FF11D608326960FB623
:10046000F894DEBF0FBECDBFDF91CF9108958130EC
:1004700019F4109276010895609375010895BF9262
:10048000CF92DF92EF92FF920F931F93CF93DF9360
:10049000EC0140917401E0911A01EE2311F082E029
:1004A00001C0842F90E0DC01AB5EBE4F2C91209305
:1004B0001901DC01AE5EBE4F8C9180931801F0E013
:1004C000E15FFE4F3181622F70E0442349F031300B
:1004D00039F49B01280F311DC9019595879538C0C6
:1004E000C617D707A4F1682F70E06C177D0784F159
:1004F000411102C08C2F2CC0821B032F10E0015031
:100500001109E82EF12CC701B8010E948C116093EB
:1005100073016695E62FF0E0822FC12CD12CB12C0F
:10052000B316B1F0C601B8010E947811822F860F70
:10053000CE0CDF1CAE01481B510957FF03C051957B
:1005400041955109E417F5071CF4B394E9CF822FC4
:10055000DF91CF911F910F91FF90EF90DF90CF909F
:10056000BF90089581E00895611160931D01089581
:10057000662389F0813061F48091AF019091AE01E2
:10058000891B681B6093AE0182E080931E0103C04B
:10059000635E60931C0180911C01873418F086E42F
:1005A00080931C01089560936E0108950F931F932B
:1005B000CF93DF938091740180937901809115012D
:1005C00080937A018091120180937B0180911601C2
:1005D00080937C018091130180937D0180911001B3
:1005E00080937E018091760180937F0180917501D7
:1005F0008093800180910B0180938101809109019A
:100600008093820180910A01809383018091080187
:100610008093840180910C018093850180911A015F
:100620008093860180911701809387018091140146
:1006300080938801809111018093890180911C0130
:1006400080938A018091AE0180938B0180911D017E
:1006500080938C0180910E0180938D0180910D011A
:1006600080938E0180916E0180938F01F89409E749
:1006700011E0C1E8D0E0F80161918F01CE010E9444
:10068000A8112196C839D105B1F765EA80E890E054
:100690000E94A8117894DF91CF911F910F91089536
:1006A000882321F0813031F4819805C08198919898
:1006B00089980895819A919A899A0895CF93C82F1D
:1006C00080939201809391018091930181110DC0DB
:1006D0000E949F0191E0C11101C090E081E0C2340D
:1006E00008F480E0890F0E945003C11109C01092E4
:1006F0006D0010926C0010926B0010926A0015C091
:10070000C1508C2F90E0FC01E65EFE4FE491F0E0DA
:10071000F0936D00E0936C00FC01EC57FF4FE49107
:10072000F0E0F0936B00E0936A00CF910C9492019B
:10073000809377010C945E03CF93C091920189E17D
:100740008C0F873908F080E00E945E0382E00E94EF
:100750005D018C2FCF910C945E03CF93C0919201D9
:1007600080E00E945E0383E00E945D018C2FCF91A8
:100770000C945E030F931F93CF93E82F8091B101E8
:100780009FEF980F9C3128F480E00E949F0180E049
:100790007DC0CE2FC295CF70EF70909193019111D3
:1007A00003C0C33008F0C2E0E73008F442C0E730CD
:1007B000B1F40091510110E00F5F1F4F0E947D01C5
:1007C00065E00E946C119801290F311DC90166E096
:1007D00070E00E948C1180935101FC0135C0E8301B
:1007E000B1F480919301882311F08FE001C083E080
:1007F000682351F48091510190E0019666E070E029
:100800000E948C1180935101E091510112C090918E
:100810009301992381F08D31D8F090E0E92FF0E039
:10082000E55CFE4F2081821710F09E5FF7CF319775
:10083000E081F0E009C0862F869563E00E946C118C
:10084000E92FF0E0EE0FFF1FE358FF4FE49101C0E6
:10085000E0E0C33071F48091500190E0019663E1D3
:1008600070E00E94781180935001DC01A85DBE4FBA
:10087000CC91CC2329F0C13029F0EE0FC2E002C0A8
:10088000C0E0E0E08E2F0E949F018C2FCF911F913E
:100890000F910C945003CF93C0911A01C1114BC01A
:1008A000883039F4109272011092700110926F0129
:1008B00043C0813B59F48091720181508330D8F557
:1008C00083E0809372018093710135C0853BB9F458
:1008D000CB016EE370E00E947811892B69F580915D
:1008E00072018A3F48F58B5F80937201809371019A
:1008F0001092700110926F010E949C031DC0813004
:10090000D1F480916F0190917001019688382EE0AA
:10091000920728F49093700180936F010DC010929C
:10092000700110926F0180917201882329F081502B
:100930008093720101C0C1E08C2FCF910895FF9286
:100940000F931F93CF93DF938C01EB01F42E8091D3
:10095000AC019091AD01892B31F0E091AC01F091A7
:10096000AD0189E009951093AD010093AC01012B15
:1009700039F0E091AC01F091AD01BE018F2D0995E8
:1009800081E080937801DF91CF911F910F91FF90CB
:100990000895CF93DF93E0919B01EE2359F0E1504E
:1009A000E0939B01F0E0EE0FFF1FE456FE4FC08185
:1009B000D18102C0C0E0D0E0E0919B01EE2341F084
:1009C000F0E0EE0FFF1FE656FE4F8081918102C0DE
:1009D00080E090E04AE060E070E00E949F04CE0179
:1009E000DF91CF910895883029F410926B01109215
:1009F000520116C0813009F590915201911108C041
:100A00006032710548F1809352010E94530124C065
:100A1000913081F46B3B710528F082E080935201A4
:100A200080E018C061157105B9F06270862F880FDB
:100A30008E5E10C00E94C9040FC0813869F481E045
:100A40008093520180916B018F5F80936B010E94B4
:100A500053018BE40E945E0380E008959C01909115
:100A60009B01983090F4E92FF0E0EE0FFF1FE45661
:100A7000FE4F318320839F5F90939B0148E0C90123
:100A80000E949F0480919B0108958FEF08950F931A
:100A90001F93CF93DF93EC018B010E94C904B8012F
:100AA000CE01DF91CF911F910F910C942E058430D0
:100AB00021F58091AC019091AD012CE0803A920734
:100AC00029F469E170E08EEF96E014C08E5F9640E5
:100AD00069F490919201923048F0892F869596950D
:100AE0009695890F0E94980380E0089560E070E079
:100AF00089EE95E00E944705F7CF81E00895813C9B
:100B000029F460E070E089EE95E006C0823C39F49B
:100B100060E070E08BEA95E00E94470518C0813BD9
:100B200051F4CB016EE370E00E947811892B79F4C7
:100B30000E949C030CC0813E61F4CB016EE370E027
:100B40000E9478116F5F60930C010E94D60280E0D2
:100B5000089581E00895CF93C0911A01C11119C081
:100B6000813C29F460E070E089EE95E006C0823CAB
:100B700039F460E070E08DEC95E00E9447050AC012
:100B8000873B39F460E070E083E899E00E942E052D
:100B900001C0C1E08C2FCF910895813C29F460E021
:100BA00070E089EE95E006C0823C39F460E070E0C8
:100BB0008FE795E00E94470508C0873B41F460E05D
:100BC00070E088E899E00E942E0580E0089581E0B9
:100BD00008950F931F93CF938B01883089F480E0A1
:100BE0000E945E0360E080910E010E94BA031092A1
:100BF0007201012B19F481E080939301C0E0F9C0E8
:100C0000813051F469317105C8F38093930180916B
:100C10000E010E94BA03F2CF833051F52091760184
:100C2000222361F08091750190E062EC71E00E94F6
:100C30005B110817190710F020931B01602F80919A
:100C40000E010E94BA03C0911A01C111D7CF809141
:100C50006E01882399F290E062EC71E00E945B11D2
:100C60008017910758F660E070E082E999E087C04C
:100C7000813B89F481E090E00E943F020E945E0384
:100C800080917401811104C00831110508F4B6CFB8
:100C900061E070E027C0813ED9F3813821F4809172
:100CA0001B0190E00EC0813C21F46091920170E044
:100CB00019C0823B69F4C0911A01CC2329F086E95E
:100CC00090E00E943F0207C086E90E945E0391C047
:100CD000823E21F480E00E945E0390CF823C39F492
:100CE00066E970E08EEF96E00E94470587CF833972
:100CF00089F3833C29F460E070E08BEA95E0F4CF5F
:100D0000843C39F40E949C0360E070E082E999E041
:100D1000EBCF8F3C29F460E070E082EB92E0E4CF0F
:100D2000C0911A018A3B91F4672B81F4CC2339F0EE
:100D30000E949C0310921A010E94D6025FCF60E0CD
:100D400070E089E799E00E942E0553C0C11150C0A0
:100D50008A3C31F40E949C0381E080931A0145C0D3
:100D6000833B29F460E070E080EA9CE008C0853CA9
:100D700049F40E949C0360E070E082E39EE00E94E0
:100D8000470537C0873CA9F490910E01892F8295C1
:100D90008F708F5F83708295807F9F70892B809387
:100DA0000E0160E00E94BA030E94D6020E949C03DA
:100DB00020C0873BC1F4C8018F739927892B69F440
:100DC00090910E01892F8F708F5F292F207F6BE00C
:100DD0000E946C11922B90930E01602F80910E0156
:100DE0000E94BA0306C0873E19F40E94D60201C0D1
:100DF000C1E08C2FCF911F910F910895CF92DF9278
:100E0000EF92FF920F931F93CF93DF93182FEB0175
:100E1000F090190100911801D0907401DD2019F0B3
:100E2000E090730102C0EE24E394C0907201BE0111
:100E3000812F0E944B0460917201662339F0C1102A
:100E40000CC0809192018093560107C0CC2029F0FC
:100E500060E070E089EE95E03EC0812F8D7F8830A4
:100E6000C9F410926D011A3019F4C0911B01D0E041
:100E70008F2D90E08C179D0730F410E0C017D1073C
:100E800010F4C0931B01CE010E943F020E94980300
:100E900081E079C0113CE1F2123CA1F480911A0189
:100EA000811101C006E980919201801710F4802F12
:100EB00002C080911B010E9498038091920180934F
:100EC00056015AC1143C51F480E00E945E0360E078
:100ED00070E082E999E00E9447054EC18FE4810FDE
:100EE000823008F049C0DD2041F0CE0168E170E0B9
:100EF0000E947811892B09F03FC1809192012097BF
:100F000061F4123B11F48FEF05C08017E0F7F8167B
:100F1000B8F081E08093050113C0C73391E0D90791
:100F200078F0801780F7CD36D24050F0F81640F0B8
:100F30000E949C0360E070E082E999E00E9447050E
:100F4000D0919201809105016E2D70E0082E000C69
:100F5000990B0E945B118D0F911D0E943F02C82FBB
:100F600080931B01D81731F0813411F0081302C0AF
:100F70000E94AD038C2F9FCF8FE1810F823030F420
:100F800080910501819580930501F6C0113009F02B
:100F9000C6C0EE9711F4109305016623A1F080916D
:100FA000560170E06150710990E00E945B11609100
:100FB000710170E00E948C11611101C061E06093C9
:100FC0009101609377013091910120919201832FDB
:100FD00090E0821B910960915401709155016F5FFF
:100FE0007F4F7093550160935401009709F4C4C07A
:100FF00097FF05C02A3630F040E450E005C040E0DD
:1010000052E002C040E051E05695479597FD0196A9
:10101000959587950097C1F74617570708F0ACC01C
:10102000321710F43FEF03C0231710F431E0320FF2
:101030007FEF730F872F90E0AC01465E5E4FFA01A1
:101040006491721758F4E0916C00F0916D00EF2BF1
:1010500029F46F3F19F46FEF70E01CC0E0916C0051
:10106000F0916D0070E0E617F70738F460916C00BE
:1010700070916D006F5F7F4F0DC0E0916C00F0913B
:101080006D006E177F0750F460916C0070916D00D9
:101090006150710970936D0060936C008C579F4F85
:1010A000FC016491E0916A00F0916B0070E0E6173A
:1010B000F70738F460916A0070916B006F5F7F4FA3
:1010C0000DC0E0916A00F0916B006E177F0750F43D
:1010D00060916A0070916B006150710970936B00B0
:1010E00060936A0060916C0070916D00FA01449108
:1010F00050E06417750761F440916A0050916B00ED
:10110000FC01849190E04817590711F43093920143
:101110000E94920110925501109254012DC0153079
:10112000A1F480919201823438F190E08C1B9D0BE8
:10113000282F813491052CF08739910518F026E984
:1011400001C021E42093910117C01630B9F49091A9
:10115000920180917701981778F4C90FD11D90E022
:101160008C179D0734F0C134D10524F4C1E4D0E0DC
:1011700001C0EC01C093910100E062C0173071F42E
:101180009091910180919201891710F48F5F03C0B3
:10119000981790F7815080939101EECF00911A013A
:1011A00001114DC0133CB9F481E0D11080E080936F
:1011B00074010E94D6020E94AD038091920190E0DA
:1011C0000E943F0280931B010E949803809192012C
:1011D0008093560135C0133B21F4CD2B69F686E987
:1011E00004C0133E29F480911B010E94980328C07B
:1011F000153C51F480E00E945E0360E070E082E301
:101200009EE00E9447051CC0173B29F460E070E097
:1012100082E799E011C01A3C49F4809192018093D1
:1012200076010E94D6020E949C030AC01A3B39F440
:1012300060E070E08EE799E00E942E0501C001E0B9
:10124000802FDF91CF911F910F91FF90EF90DF9052
:10125000CF900895883069F41092530180E00E9485
:101260005E038091940181113BC081E08093530122
:1012700024C0982F907F903BC1F4209153014217D6
:1012800080F0CB016DE570E00E947811029739F48F
:101290002F5F20935301421718F188E303C082E1C6
:1012A00001C080E00E945E031BC0903E69F4809103
:1012B0005301882399F0481788F060E070E083EFCD
:1012C00094E00E942E050CC08A3051F460916B01AD
:1012D00080915301F90109950E94D6020E94C90428
:1012E00080E00895409174014E5F2CEF31E00C9442
:1012F0002A092CEF31E043E00C942A0927E332E07D
:1013000042E00C942A0924EB32E041E00C942A09D3
:1013100028EB32E042E00C942A0923ED32E041E070
:101320000C942A090F931F93CF93DF93D82F8B012F
:10133000873B21F480E00E945E035BC080798039A6
:10134000B9F420911501909116018D2F8F70823084
:1013500041F480917601811108C0822F291728F469
:1013600003C0822F921708F4892F0E945E030DC0DC
:10137000803819F480E00E945E03D83031F460E0D8
:1013800080910D010E94BA0334C0D13039F4093183
:10139000110508F471C0D093930102C0D33031F429
:1013A000602F80910D010E94BA0366C0D43C79F48D
:1013B000C0917601CC2319F06C2F70E015C06091BC
:1013C0001B0170E08EEF96E00E94470558C0D43BA9
:1013D00039F40E949C031092F00161E070E004C0B7
:1013E000D53C39F466E970E08EEF96E00E9447053F
:1013F00043C0C0911A01C11141C0DA3B39F460E029
:1014000070E08DE899E00E942E0539C0D73CA9F420
:1014100090910D01892F82958F708F5F83708295D7
:10142000807F9F70892B80930D0160E00E94BA033A
:101430000E94D6020E949C0322C0D73BC1F4C8017F
:101440008F739927892B69F490910D01892F8F70E3
:101450008F5F292F207F6BE00E946C11922B90935D
:101460000D01602F80910D010E94BA0308C0D73E84
:1014700029F40E94D60203C0C0E001C0C1E08C2F55
:10148000DF91CF911F910F9108958DE084B9109253
:10149000BB011092BC0183B1886483B908950E9496
:1014A000450A139A87EE83B908951092BD0120B1C1
:1014B00091B1309190012295269526952370892F20
:1014C00090E0880F991F880F991F820F911D830F3D
:1014D000809390018091B201882309F40FC110928A
:1014E000B2018091BB0190919301992319F01F984B
:1014F0001092BB01811145C080911E01882349F0E3
:101500006091B7017091B8017093B4016093B30119
:1015100004C06091B3017091B401605F7F4FE6E059
:1015200076956795EA95E1F780E098E50E94781155
:1015300080911D0190E00397680F791F769567955C
:101540006093B10180916A01882311F0815008C035
:101550006D3140F460E070E084E00E94FD0085E0C1
:1015600080936A01809193018111BFC08EE884B994
:1015700081E08093BB011092BC0183B1886483B980
:10158000B4C0813009F0B1C080911E01811143C007
:101590008091B5019091B601409645E0969587956A
:1015A0004A95E1F76091AE01AC0156954795062E3C
:1015B000000C770B9B012E503140240F351F3093C8
:1015C000B0012093AF0120915901E22FF0E0EE0F1E
:1015D000FF1FE65AFE4F40815181DC01A41BB50B71
:1015E000AD01918380832F5F2770209359019D0166
:1015F000220F331F220F331F820F931F20911C01D4
:1016000030E0261B370B225F3E4F220F331F821B19
:10161000930B23E01CC08091B9019091BA01909383
:10162000B6018093B501409635E0969587953A9539
:10163000E1F7EAE5F1E081939193B1E0EA36FB0747
:10164000D1F7A6CF009709F00196215029F018167E
:101650001906C4F70197F9CF18161906E4F457FDD7
:1016600039C02091580112160CF1880F991FBC0146
:101670006350710977FF02C06F5F7F4F7595679563
:101680001616170614F061E070E088E1861B80935F
:10169000580185E026C08C3F2FEF9207DCF457FFFE
:1016A00019C02091580127FF05C02450281B209302
:1016B000580119C024EE281B209358012091B10134
:1016C0002F3188F06CEF7FEF681B790B759567956C
:1016D00086E007C08091B1018E3128F060E070E0B3
:1016E00087E00E94FD000E94450A80911E01882328
:1016F00029F080911E01815080931E0108950F935F
:101700001F93CF93109296018091EE019091EF017B
:101710009C012F5F3F4F88279078822B932B9093CB
:10172000EF018093EE01C09194010E947401C817EB
:1017300031F110929301809394019091F0018823EC
:1017400059F0892F80699F709F3009F08F5F8093D7
:10175000F00180E090E00DC0892F8F7E95FD02C0E2
:10176000806801C0806C8093F0018091EE019091BF
:10177000EF010E944E011092EF011092EE010091D4
:10178000EE011091EF0180919301882381F0B8015F
:1017900083E00E94FD000E9417010F731127012BA7
:1017A00009F047C0109257010E944F0A32C0C09101
:1017B000F0018C2F807F803B19F460E070E001C065
:1017C000B80181E00E94FD00C4FF13C0C5FF02C044
:1017D000C8010CC008311105E0F01092EF01109221
:1017E000EE01C062C093F00180E090E00E944E01E3
:1017F00010C0CC2371F0C5FD0AC00231110548F0BC
:10180000C064C093F00180E090E00E944E010E940D
:10181000530180915701811106C083B1886483B957
:1018200081E08093B201809157018F5F8F71809327
:101830005701CF911F910F9108958091BD018111A2
:101840000E94550A8091960181110C947F0B089596
:10185000EF92FF920F931F93CF93DF93EC0108E079
:1018600017E082ECE82EFF24F3942097E1F08091BA
:10187000780181111AC080919201863028F482E0AB
:101880000E94F700C70104C080E00E94F700C80171
:101890000197F1F780E00E94F7000E941D0C0E9462
:1018A00017012197E2CF81E001C080E0DF91CF9165
:1018B0001F910F91FF90EF900895CF93C82F882329
:1018C000A9F089E10E945E0386EA90E00E94280C5C
:1018D00080E00E945E038AEF90E00E94280CC150D5
:1018E00081F78AE992E0CF910C94280C89E10E945B
:1018F0005E0388E090E00E94280C80E00E945E0376
:101900008AEF90E00E94280CECCFCF93DF9364E63F
:101910000E946C11282F892F6AE00E946C11EC0143
:10192000222359F0822F0E945D0C8C2F0E945D0CA7
:101930008D2FDF91CF910C945D0CC111F6CFF8CFB4
:10194000DF92EF92FF920F931F93CF93DF93D82FE5
:101950008B01C0910B0181E080936D01C33009F0D0
:10196000E9C0F09072018D2F0E944B04FF2059F0C6
:1019700080917201811107C060E070E089EE95E00E
:101980000E944705D7C0D83021F481E0809303013D
:10199000D3C0D23C19F410927201DDC0D13BC1F426
:1019A00090910201012B49F49E3610F08FEF03C095
:1019B000923018F481E08093030180910301890F34
:1019C00011F481E044C18F3608F441C18EE63FC175
:1019D000D13E31F480910301819580930301F3C0DE
:1019E000D23B61F481E08093030180910201823057
:1019F00008F4F1C0815080930201EDC0D13009F0AC
:101A0000FBC00E33110511F4D0930301D0904F01A8
:101A10008D2D880FD7FC809590E067E070E00E94E4
:101A20005B11292FE0904E018E2D880FE7FC8095E9
:101A3000D09101016D2F70E090E00E945B11290FA1
:101A4000F0904D018F2D880FF7FC8095C09100011B
:101A50006C2F70E090E00E945B11920F6091020188
:101A600070E0690F711D809172018130A1F4809145
:101A70006F019091700125E0969587952A95E1F781
:101A800024E730E0A901481B590BCA010E945B11F1
:101A9000B9010E947811862F0E945E0300FD06C0E6
:101AA0000E947D018170D80ED0924F0180914C012F
:101AB000E80EE0924E010E947D0165E20E946C11E9
:101AC000F90EF0924D010E947D018F7339F40E944E
:101AD0007D016DE00E946C1190934C01DD2339F083
:101AE0000E947D018F7319F4D150D09301010E949F
:101AF0007D01811109C00E947D016BE00E946C1183
:101B00009093010110924E01C33038F00E947D0184
:101B10008F7119F4C150C09300010E947D018F772D
:101B200009F080C00E947D0166E00E946C119093D4
:101B3000000178C0D83021F481E08093040189C08D
:101B4000D13C39F460E070E089EE95E00E944705F1
:101B500080C0D23C51F48C2F90E0019665E070E09B
:101B60000E948C1180930B014CC0D13B51F5C230C7
:101B700090F400FD6EC0EC2FF0E0E75FFE4F808137
:101B800090910401891B883020F08F3F99F58EEFEA
:101B900031C088E02FC0C43009F05BC090910801CB
:101BA00080910401890F823010F482E003C08937EC
:101BB00008F088E780930801809108010E945E0385
:101BC00048C0D13E31F48091040181958093040195
:101BD00018C0D23BA1F481E080930401C23070F5BB
:101BE00000FD37C0EC2FF0E0E75FFE4F80818F3FB4
:101BF00081F18F5F80832DC0D13C09F4A3CFD23E09
:101C000019F40E94D60225C0D53C41F460E070E092
:101C100082E39EE00E94470580E0D0CFD13011F0F2
:101C200081E018C00E33110519F481E0809304019E
:101C300080919001080F009390010BC0C43049F4CB
:101C400080910801833008F4B7CF8150B3CF8093DF
:101C5000020180E0DF91CF911F910F91FF90EF90F3
:101C6000DF9008950F931F93CF93DF93D82F8B01AD
:101C7000883039F480916D01813019F488E00E9438
:101C8000A00C8D2F8079803961F481E080936C0104
:101C9000C0916D01C1110CC080911B010E945E03B7
:101CA00025C0803839F410926C0180E00E945E03F8
:101CB000C0E01CC0D130C9F4C0916C01CC2359F0F4
:101CC00080916D018130A1F7B801DF91CF911F9113
:101CD0000F910C94A00C0733114050F3D093930153
:101CE00060E080E00E94BA0301C0C1E08C2FDF9168
:101CF000CF911F910F9108951F920F920FB60F92DF
:101D000011242F933F938F939F93AF93BF93EF93A0
:101D1000FF938091BC018823E9F0E091BB0120B1E1
:101D200031B1F0E0EE0FFF1FDF01A954BE4F2D933C
:101D30003C93ED54FE4F808191818217930708F404
:101D400001962817390708F401979183808381E071
:101D50008093BD0181E08093BC01FF91EF91BF9121
:101D6000AF919F918F913F912F910F900FBE0F9048
:101D70001F9018951F920F920FB60F9211248F93F8
:101D800081E0809396018F910F900FBE0F901F906E
:101D900018951F920F920FB60F9211248F9381E026
:101DA000809395018F910F900FBE0F901F90189503
:101DB000F89485B7877F85BF88ED90E00FB6F894DB
:101DC000A8958FBD90B7977F90BF0FBE88E08CB964
:101DD0008AE780BB81EA8093720081E08093710082
:101DE00084E082BB87BD8CB788608CBFA89580E4F7
:101DF00080BF0E944F0A789481E00E945D0160E0FC
:101E000070E087E595E00E942E05109278010E940F
:101E10009C030E947401811109C0F89480E890E04D
:101E20000E94A011853AA9F178949EC0C0E08C2F41
:101E30000E945E0383E190E00E94280C8C2F86951F
:101E40000E945E0383E190E00E94280C0E947401CE
:101E50008823A1F0CF5FC03451F765E181E00E9493
:101E6000B8020E94D602C6E98C2F0E945E0384E06D
:101E700090E00E94280CC150B9F7CFCFCC2369F273
:101E80008C2F0E945E038DE090E00E94280CC150D0
:101E9000F5CF09E711E0C1E8D0E0CE010E94A01122
:101EA000F80181938F012196C839D105B1F7789453
:101EB000809179018093740180917A01809315015A
:101EC00080917B018093120180917C0180931601A7
:101ED00080917D018093130180917E018093100198
:101EE00080917F01809376018091800180937501BC
:101EF0008091810180930B0180918201809309017F
:101F00008091830180930A0180918401809308016C
:101F10008091850180930C018091860180931A0144
:101F2000809187018093170180918801809314012B
:101F3000809189018093110180918A0180931C0115
:101F400080918B018093AE0180918C0180931D0163
:101F500080918D0180930E0180918E0180930D01FF
:101F600080918F0180936E01809176018111809321
:101F70001B0161E070E089EE95E00E942E0543E4CC
:101F8000342E52E0452E60E4562E7724739477E089
:101F9000672ECC24C394D12CFCEF8F2EF3E09F2E20
:101FA000A9EEAA2EA5E0BA2E0E94170180919901F0
:101FB00090919A01009751F060919701709198016A
:101FC0000E94470510929A01109299018091930105
:101FD000882309F443C080E00E945E03A89530BEC8
:101FE0001F980E9474018111FCCF0E9453018CB78D
:101FF00088608CBF1092BD011092960110929501DD
:1020000080919301882309F186B78F79806486BF18
:1020100086B7806186BF889586B78F7E86BF8091A0
:1020200095018111109293018091BD01882331F0B7
:1020300070921E017092B2010E94550A8091960121
:102040008823F1F20E947F0BDBCF40921E018CB7F8
:10205000877F8CBF0E944F0AA89550BE0E941D0C1E
:10206000109278018091AC019091AD01F2E0823B39
:102070009F0789F4C0E7D0E0FE01849180530E945D
:102080005D0C8CE291E00E94280C2196F0E0CC37A8
:10209000DF0791F7D3C02CE0803A920779F03EE059
:1020A0008233930709F0BEC080916D01813009F041
:1020B000F7C080916C01882309F4F2C0C0910B0134
:1020C000C23019F120F0C43009F48CC06DCFEC2F70
:1020D000F0E0E75FFE4FD08186E90E945E03C11108
:1020E00009C0DA3220F4C4010197F1F708C081E099
:1020F00090E003C08D2F869590E00E94280C80E030
:102100000E945E038D2F90E0C8C00E947D018F73F6
:10211000E82EF12C0E947D01662D0E946C11E601D3
:1021200002C0CC0FDD1F9A95E2F70E947D0165E0A9
:102130000E946C11F60102C0EE0FFF1F9A95E2F7A4
:10214000CE0FDF1F0E947D0190E0BE010E948C1126
:10215000C80FD91FC739D10514F0C6E9D0E08C2FBC
:102160000E945E03C7010E94280C8E0133E0159582
:1021700007953A95E1F7011101C001E010E0C701B0
:102180000E94280CC01BD10BD7FF02C0C0E0D0E0DA
:102190008C2F0E945E030E947D01837041F4C70171
:1021A0000E94280CCE01959587950E945E03C2304F
:1021B000D1052CF70E947D016DE00E946C11E601B3
:1021C00002C0CC0FDD1F9A95E2F70E947D0190E0DE
:1021D000BE010E947811C80FD91F80E00E945E03E3
:1021E000CE015BC0C0910801CC0FC73908F0C6E929
:1021F000D4E08C2F0E945E0385E090E00E94280CC2
:10220000809108010E945E0381E490E00E94280C06
:10221000D15079F780ED92E00E94280C80E00E9476
:102220005E03C2CEF5E08B3A9F0789F48091B1013D
:102230000E94850C80911A01882389F0B0929A013E
:10224000A09299011092980110929701ADCE25E0CD
:102250008D3C920739F48091AF010E94850C88EE85
:1022600093E01BC08F579540D9F480919401811160
:102270009BCE80911B010E945E0384E690E00E9449
:10228000280C80E00E945E0380910C0190E068EED3
:1022900073E00E945B11845691090E94280C84CE41
:1022A00086B78F7986BF86B7806186BF889586B7E7
:1022B0008F7E86BF79CE0024552704C0080E591F93
:1022C000880F991F009729F076956795B8F37105E7
:1022D000B9F7802D952F0895991B79E004C0991FB7
:1022E000961708F0961B881F7A95C9F78095089570
:1022F000AA1BBB1B51E107C0AA1FBB1FA617B7072C
:1023000010F0A61BB70B881F991F5A95A9F7809547
:102310009095BC01CD01089597FB072E16F400940B
:1023200007D077FD09D00E94781107FC05D03EF454
:10233000909581959F4F0895709561957F4F089571
:10234000E199FECF1FBA8EBBE09A99278DB308950D
:10235000262FE199FECF1FBA8EBBE09A81500DB2B5
:10236000021639F01CBA2DBB0FB6F894E29AE19A26
:082370000FBE0895F894FFCFA1
:10237800060B180101010004412943030237180024
:10238800070578785F010A0A780101412D070205DF
:102398000403150112010F010201000000000000F2
:1023A80000010000000000000000010000210123DE
:0C23B800022503270429052C06FF06005F
:00000001FF
